{
  "_format": "hh-sol-artifact-1",
  "contractName": "HealpassDAO",
  "sourceName": "contracts/HealpassDAO.sol",
  "abi": [
    {
      "inputs": [
        {
          "internalType": "address",
          "name": "_tokenAddress",
          "type": "address"
        }
      ],
      "stateMutability": "nonpayable",
      "type": "constructor"
    },
    {
      "inputs": [],
      "name": "MINT_PRICE",
      "outputs": [
        {
          "internalType": "uint256",
          "name": "",
          "type": "uint256"
        }
      ],
      "stateMutability": "view",
      "type": "function"
    },
    {
      "inputs": [
        {
          "internalType": "address",
          "name": "addr",
          "type": "address"
        }
      ],
      "name": "join",
      "outputs": [],
      "stateMutability": "nonpayable",
      "type": "function"
    },
    {
      "inputs": [
        {
          "internalType": "uint256",
          "name": "",
          "type": "uint256"
        }
      ],
      "name": "members",
      "outputs": [
        {
          "internalType": "address",
          "name": "",
          "type": "address"
        }
      ],
      "stateMutability": "view",
      "type": "function"
    },
    {
      "inputs": [
        {
          "internalType": "address",
          "name": "addr",
          "type": "address"
        }
      ],
      "name": "mintToken",
      "outputs": [],
      "stateMutability": "payable",
      "type": "function"
    },
    {
      "inputs": [],
      "name": "tokenContract",
      "outputs": [
        {
          "internalType": "contract IHealpassToken",
          "name": "",
          "type": "address"
        }
      ],
      "stateMutability": "view",
      "type": "function"
    },
    {
      "stateMutability": "payable",
      "type": "receive"
    }
  ],
  "bytecode": "0x608060405234801561001057600080fd5b50604051610600380380610600833981810160405281019061003291906100dc565b80600160006101000a81548173ffffffffffffffffffffffffffffffffffffffff021916908373ffffffffffffffffffffffffffffffffffffffff16021790555050610109565b600080fd5b600073ffffffffffffffffffffffffffffffffffffffff82169050919050565b60006100a98261007e565b9050919050565b6100b98161009e565b81146100c457600080fd5b50565b6000815190506100d6816100b0565b92915050565b6000602082840312156100f2576100f1610079565b5b6000610100848285016100c7565b91505092915050565b6104e8806101186000396000f3fe60806040526004361061004e5760003560e01c806301173a741461005a57806328ffe6c81461007657806355a373d61461009f5780635daf08ca146100ca578063c002d23d1461010757610055565b3661005557005b600080fd5b610074600480360381019061006f91906102d7565b610132565b005b34801561008257600080fd5b5061009d600480360381019061009891906102d7565b61020d565b005b3480156100ab57600080fd5b506100b4610210565b6040516100c19190610363565b60405180910390f35b3480156100d657600080fd5b506100f160048036038101906100ec91906103b4565b610236565b6040516100fe91906103f0565b60405180910390f35b34801561011357600080fd5b5061011c610269565b604051610129919061041a565b60405180910390f35b662386f26fc1000034101561017c576040517f08c379a000000000000000000000000000000000000000000000000000000000815260040161017390610492565b60405180910390fd5b600160009054906101000a900473ffffffffffffffffffffffffffffffffffffffff1673ffffffffffffffffffffffffffffffffffffffff16636a62784234836040518363ffffffff1660e01b81526004016101d891906103f0565b6000604051808303818588803b1580156101f157600080fd5b505af1158015610205573d6000803e3d6000fd5b505050505050565b50565b600160009054906101000a900473ffffffffffffffffffffffffffffffffffffffff1681565b60006020528060005260406000206000915054906101000a900473ffffffffffffffffffffffffffffffffffffffff1681565b662386f26fc1000081565b600080fd5b600073ffffffffffffffffffffffffffffffffffffffff82169050919050565b60006102a482610279565b9050919050565b6102b481610299565b81146102bf57600080fd5b50565b6000813590506102d1816102ab565b92915050565b6000602082840312156102ed576102ec610274565b5b60006102fb848285016102c2565b91505092915050565b6000819050919050565b600061032961032461031f84610279565b610304565b610279565b9050919050565b600061033b8261030e565b9050919050565b600061034d82610330565b9050919050565b61035d81610342565b82525050565b60006020820190506103786000830184610354565b92915050565b6000819050919050565b6103918161037e565b811461039c57600080fd5b50565b6000813590506103ae81610388565b92915050565b6000602082840312156103ca576103c9610274565b5b60006103d88482850161039f565b91505092915050565b6103ea81610299565b82525050565b600060208201905061040560008301846103e1565b92915050565b6104148161037e565b82525050565b600060208201905061042f600083018461040b565b92915050565b600082825260208201905092915050565b7f496e73756666696369656e74204554482073656e740000000000000000000000600082015250565b600061047c601583610435565b915061048782610446565b602082019050919050565b600060208201905081810360008301526104ab8161046f565b905091905056fea26469706673582212206076e6331493399ed5cc4ecf4de90e75b7dd510eeefb136e78689985df0cfbe164736f6c63430008140033",
  "linkReferences": {},
  "deployedLinkReferences": {}
}