{
  "_format": "hh-sol-artifact-1",
  "contractName": "HealpassToken",
  "sourceName": "contracts/HealpassToken.sol",
  "abi": [
    {
      "inputs": [],
      "stateMutability": "nonpayable",
      "type": "constructor"
    },
    {
      "inputs": [
        {
          "internalType": "address",
          "name": "spender",
          "type": "address"
        },
        {
          "internalType": "uint256",
          "name": "allowance",
          "type": "uint256"
        },
        {
          "internalType": "uint256",
          "name": "needed",
          "type": "uint256"
        }
      ],
      "name": "ERC20InsufficientAllowance",
      "type": "error"
    },
    {
      "inputs": [
        {
          "internalType": "address",
          "name": "sender",
          "type": "address"
        },
        {
          "internalType": "uint256",
          "name": "balance",
          "type": "uint256"
        },
        {
          "internalType": "uint256",
          "name": "needed",
          "type": "uint256"
        }
      ],
      "name": "ERC20InsufficientBalance",
      "type": "error"
    },
    {
      "inputs": [
        {
          "internalType": "address",
          "name": "approver",
          "type": "address"
        }
      ],
      "name": "ERC20InvalidApprover",
      "type": "error"
    },
    {
      "inputs": [
        {
          "internalType": "address",
          "name": "receiver",
          "type": "address"
        }
      ],
      "name": "ERC20InvalidReceiver",
      "type": "error"
    },
    {
      "inputs": [
        {
          "internalType": "address",
          "name": "sender",
          "type": "address"
        }
      ],
      "name": "ERC20InvalidSender",
      "type": "error"
    },
    {
      "inputs": [
        {
          "internalType": "address",
          "name": "spender",
          "type": "address"
        }
      ],
      "name": "ERC20InvalidSpender",
      "type": "error"
    },
    {
      "anonymous": false,
      "inputs": [
        {
          "indexed": true,
          "internalType": "address",
          "name": "owner",
          "type": "address"
        },
        {
          "indexed": true,
          "internalType": "address",
          "name": "spender",
          "type": "address"
        },
        {
          "indexed": false,
          "internalType": "uint256",
          "name": "value",
          "type": "uint256"
        }
      ],
      "name": "Approval",
      "type": "event"
    },
    {
      "anonymous": false,
      "inputs": [
        {
          "indexed": true,
          "internalType": "address",
          "name": "from",
          "type": "address"
        },
        {
          "indexed": true,
          "internalType": "address",
          "name": "to",
          "type": "address"
        },
        {
          "indexed": false,
          "internalType": "uint256",
          "name": "value",
          "type": "uint256"
        }
      ],
      "name": "Transfer",
      "type": "event"
    },
    {
      "inputs": [],
      "name": "MINT_PRICE",
      "outputs": [
        {
          "internalType": "uint256",
          "name": "",
          "type": "uint256"
        }
      ],
      "stateMutability": "view",
      "type": "function"
    },
    {
      "inputs": [
        {
          "internalType": "address",
          "name": "owner",
          "type": "address"
        },
        {
          "internalType": "address",
          "name": "spender",
          "type": "address"
        }
      ],
      "name": "allowance",
      "outputs": [
        {
          "internalType": "uint256",
          "name": "",
          "type": "uint256"
        }
      ],
      "stateMutability": "view",
      "type": "function"
    },
    {
      "inputs": [
        {
          "internalType": "address",
          "name": "spender",
          "type": "address"
        },
        {
          "internalType": "uint256",
          "name": "value",
          "type": "uint256"
        }
      ],
      "name": "approve",
      "outputs": [
        {
          "internalType": "bool",
          "name": "",
          "type": "bool"
        }
      ],
      "stateMutability": "nonpayable",
      "type": "function"
    },
    {
      "inputs": [
        {
          "internalType": "address",
          "name": "account",
          "type": "address"
        }
      ],
      "name": "balanceOf",
      "outputs": [
        {
          "internalType": "uint256",
          "name": "",
          "type": "uint256"
        }
      ],
      "stateMutability": "view",
      "type": "function"
    },
    {
      "inputs": [],
      "name": "decimals",
      "outputs": [
        {
          "internalType": "uint8",
          "name": "",
          "type": "uint8"
        }
      ],
      "stateMutability": "view",
      "type": "function"
    },
    {
      "inputs": [
        {
          "internalType": "address",
          "name": "addr",
          "type": "address"
        }
      ],
      "name": "mint",
      "outputs": [],
      "stateMutability": "payable",
      "type": "function"
    },
    {
      "inputs": [],
      "name": "name",
      "outputs": [
        {
          "internalType": "string",
          "name": "",
          "type": "string"
        }
      ],
      "stateMutability": "view",
      "type": "function"
    },
    {
      "inputs": [],
      "name": "owner",
      "outputs": [
        {
          "internalType": "address",
          "name": "",
          "type": "address"
        }
      ],
      "stateMutability": "view",
      "type": "function"
    },
    {
      "inputs": [],
      "name": "symbol",
      "outputs": [
        {
          "internalType": "string",
          "name": "",
          "type": "string"
        }
      ],
      "stateMutability": "view",
      "type": "function"
    },
    {
      "inputs": [],
      "name": "totalSupply",
      "outputs": [
        {
          "internalType": "uint256",
          "name": "",
          "type": "uint256"
        }
      ],
      "stateMutability": "view",
      "type": "function"
    },
    {
      "inputs": [],
      "name": "total_supply",
      "outputs": [
        {
          "internalType": "uint256",
          "name": "",
          "type": "uint256"
        }
      ],
      "stateMutability": "view",
      "type": "function"
    },
    {
      "inputs": [
        {
          "internalType": "address",
          "name": "to",
          "type": "address"
        },
        {
          "internalType": "uint256",
          "name": "value",
          "type": "uint256"
        }
      ],
      "name": "transfer",
      "outputs": [
        {
          "internalType": "bool",
          "name": "",
          "type": "bool"
        }
      ],
      "stateMutability": "nonpayable",
      "type": "function"
    },
    {
      "inputs": [
        {
          "internalType": "address",
          "name": "from",
          "type": "address"
        },
        {
          "internalType": "address",
          "name": "to",
          "type": "address"
        },
        {
          "internalType": "uint256",
          "name": "value",
          "type": "uint256"
        }
      ],
      "name": "transferFrom",
      "outputs": [
        {
          "internalType": "bool",
          "name": "",
          "type": "bool"
        }
      ],
      "stateMutability": "nonpayable",
      "type": "function"
    },
    {
      "stateMutability": "payable",
      "type": "receive"
    }
  ],
  "bytecode": "0x6080604052633b9aca006005553480156200001957600080fd5b506040518060400160405280600881526020017f4865616c436f696e0000000000000000000000000000000000000000000000008152506040518060400160405280600481526020017f4845414c0000000000000000000000000000000000000000000000000000000081525081600390816200009791906200036d565b508060049081620000a991906200036d565b50505033600660006101000a81548173ffffffffffffffffffffffffffffffffffffffff021916908373ffffffffffffffffffffffffffffffffffffffff16021790555062000454565b600081519050919050565b7f4e487b7100000000000000000000000000000000000000000000000000000000600052604160045260246000fd5b7f4e487b7100000000000000000000000000000000000000000000000000000000600052602260045260246000fd5b600060028204905060018216806200017557607f821691505b6020821081036200018b576200018a6200012d565b5b50919050565b60008190508160005260206000209050919050565b60006020601f8301049050919050565b600082821b905092915050565b600060088302620001f57fffffffffffffffffffffffffffffffffffffffffffffffffffffffffffffffff82620001b6565b620002018683620001b6565b95508019841693508086168417925050509392505050565b6000819050919050565b6000819050919050565b60006200024e62000248620002428462000219565b62000223565b62000219565b9050919050565b6000819050919050565b6200026a836200022d565b62000282620002798262000255565b848454620001c3565b825550505050565b600090565b620002996200028a565b620002a68184846200025f565b505050565b5b81811015620002ce57620002c26000826200028f565b600181019050620002ac565b5050565b601f8211156200031d57620002e78162000191565b620002f284620001a6565b8101602085101562000302578190505b6200031a6200031185620001a6565b830182620002ab565b50505b505050565b600082821c905092915050565b6000620003426000198460080262000322565b1980831691505092915050565b60006200035d83836200032f565b9150826002028217905092915050565b6200037882620000f3565b67ffffffffffffffff811115620003945762000393620000fe565b5b620003a082546200015c565b620003ad828285620002d2565b600060209050601f831160018114620003e55760008415620003d0578287015190505b620003dc85826200034f565b8655506200044c565b601f198416620003f58662000191565b60005b828110156200041f57848901518255600182019150602085019450602081019050620003f8565b868310156200043f57848901516200043b601f8916826200032f565b8355505b6001600288020188555050505b505050505050565b61136e80620004646000396000f3fe6080604052600436106100c65760003560e01c80636a6278421161007f57806395d89b411161005957806395d89b411461027c578063a9059cbb146102a7578063c002d23d146102e4578063dd62ed3e1461030f576100cd565b80636a627842146101f857806370a08231146102145780638da5cb5b14610251576100cd565b806306fdde03146100d2578063095ea7b3146100fd57806318160ddd1461013a57806323b872dd14610165578063313ce567146101a25780633940e9ee146101cd576100cd565b366100cd57005b600080fd5b3480156100de57600080fd5b506100e761034c565b6040516100f49190610e38565b60405180910390f35b34801561010957600080fd5b50610124600480360381019061011f9190610ef3565b6103de565b6040516101319190610f4e565b60405180910390f35b34801561014657600080fd5b5061014f610401565b60405161015c9190610f78565b60405180910390f35b34801561017157600080fd5b5061018c60048036038101906101879190610f93565b61040b565b6040516101999190610f4e565b60405180910390f35b3480156101ae57600080fd5b506101b761043a565b6040516101c49190611002565b60405180910390f35b3480156101d957600080fd5b506101e2610443565b6040516101ef9190610f78565b60405180910390f35b610212600480360381019061020d919061101d565b610449565b005b34801561022057600080fd5b5061023b6004803603810190610236919061101d565b6105d2565b6040516102489190610f78565b60405180910390f35b34801561025d57600080fd5b5061026661061a565b6040516102739190611059565b60405180910390f35b34801561028857600080fd5b50610291610640565b60405161029e9190610e38565b60405180910390f35b3480156102b357600080fd5b506102ce60048036038101906102c99190610ef3565b6106d2565b6040516102db9190610f4e565b60405180910390f35b3480156102f057600080fd5b506102f96106f5565b6040516103069190610f78565b60405180910390f35b34801561031b57600080fd5b5061033660048036038101906103319190611074565b610700565b6040516103439190610f78565b60405180910390f35b60606003805461035b906110e3565b80601f0160208091040260200160405190810160405280929190818152602001828054610387906110e3565b80156103d45780601f106103a9576101008083540402835291602001916103d4565b820191906000526020600020905b8154815290600101906020018083116103b757829003601f168201915b5050505050905090565b6000806103e9610787565b90506103f681858561078f565b600191505092915050565b6000600254905090565b600080610416610787565b90506104238582856107a1565b61042e858585610836565b60019150509392505050565b60006012905090565b60075481565b662386f26fc10000341015610493576040517f08c379a000000000000000000000000000000000000000000000000000000000815260040161048a90611160565b60405180910390fd5b600554600754106104d9576040517f08c379a00000000000000000000000000000000000000000000000000000000081526004016104d0906111cc565b60405180910390fd5b6104e5816103e861092a565b6103e8600760008282546104f9919061121b565b925050819055506000600660009054906101000a900473ffffffffffffffffffffffffffffffffffffffff1673ffffffffffffffffffffffffffffffffffffffff163460405161054890611280565b60006040518083038185875af1925050503d8060008114610585576040519150601f19603f3d011682016040523d82523d6000602084013e61058a565b606091505b50509050806105ce576040517f08c379a00000000000000000000000000000000000000000000000000000000081526004016105c5906112e1565b60405180910390fd5b5050565b60008060008373ffffffffffffffffffffffffffffffffffffffff1673ffffffffffffffffffffffffffffffffffffffff168152602001908152602001600020549050919050565b600660009054906101000a900473ffffffffffffffffffffffffffffffffffffffff1681565b60606004805461064f906110e3565b80601f016020809104026020016040519081016040528092919081815260200182805461067b906110e3565b80156106c85780601f1061069d576101008083540402835291602001916106c8565b820191906000526020600020905b8154815290600101906020018083116106ab57829003601f168201915b5050505050905090565b6000806106dd610787565b90506106ea818585610836565b600191505092915050565b662386f26fc1000081565b6000600160008473ffffffffffffffffffffffffffffffffffffffff1673ffffffffffffffffffffffffffffffffffffffff16815260200190815260200160002060008373ffffffffffffffffffffffffffffffffffffffff1673ffffffffffffffffffffffffffffffffffffffff16815260200190815260200160002054905092915050565b600033905090565b61079c83838360016109ac565b505050565b60006107ad8484610700565b90507fffffffffffffffffffffffffffffffffffffffffffffffffffffffffffffffff8110156108305781811015610820578281836040517ffb8f41b200000000000000000000000000000000000000000000000000000000815260040161081793929190611301565b60405180910390fd5b61082f848484840360006109ac565b5b50505050565b600073ffffffffffffffffffffffffffffffffffffffff168373ffffffffffffffffffffffffffffffffffffffff16036108a85760006040517f96c6fd1e00000000000000000000000000000000000000000000000000000000815260040161089f9190611059565b60405180910390fd5b600073ffffffffffffffffffffffffffffffffffffffff168273ffffffffffffffffffffffffffffffffffffffff160361091a5760006040517fec442f050000000000000000000000000000000000000000000000000000000081526004016109119190611059565b60405180910390fd5b610925838383610b83565b505050565b600073ffffffffffffffffffffffffffffffffffffffff168273ffffffffffffffffffffffffffffffffffffffff160361099c5760006040517fec442f050000000000000000000000000000000000000000000000000000000081526004016109939190611059565b60405180910390fd5b6109a860008383610b83565b5050565b600073ffffffffffffffffffffffffffffffffffffffff168473ffffffffffffffffffffffffffffffffffffffff1603610a1e5760006040517fe602df05000000000000000000000000000000000000000000000000000000008152600401610a159190611059565b60405180910390fd5b600073ffffffffffffffffffffffffffffffffffffffff168373ffffffffffffffffffffffffffffffffffffffff1603610a905760006040517f94280d62000000000000000000000000000000000000000000000000000000008152600401610a879190611059565b60405180910390fd5b81600160008673ffffffffffffffffffffffffffffffffffffffff1673ffffffffffffffffffffffffffffffffffffffff16815260200190815260200160002060008573ffffffffffffffffffffffffffffffffffffffff1673ffffffffffffffffffffffffffffffffffffffff168152602001908152602001600020819055508015610b7d578273ffffffffffffffffffffffffffffffffffffffff168473ffffffffffffffffffffffffffffffffffffffff167f8c5be1e5ebec7d5bd14f71427d1e84f3dd0314c0f7b2291e5b200ac8c7c3b92584604051610b749190610f78565b60405180910390a35b50505050565b600073ffffffffffffffffffffffffffffffffffffffff168373ffffffffffffffffffffffffffffffffffffffff1603610bd5578060026000828254610bc9919061121b565b92505081905550610ca8565b60008060008573ffffffffffffffffffffffffffffffffffffffff1673ffffffffffffffffffffffffffffffffffffffff16815260200190815260200160002054905081811015610c61578381836040517fe450d38c000000000000000000000000000000000000000000000000000000008152600401610c5893929190611301565b60405180910390fd5b8181036000808673ffffffffffffffffffffffffffffffffffffffff1673ffffffffffffffffffffffffffffffffffffffff16815260200190815260200160002081905550505b600073ffffffffffffffffffffffffffffffffffffffff168273ffffffffffffffffffffffffffffffffffffffff1603610cf15780600260008282540392505081905550610d3e565b806000808473ffffffffffffffffffffffffffffffffffffffff1673ffffffffffffffffffffffffffffffffffffffff168152602001908152602001600020600082825401925050819055505b8173ffffffffffffffffffffffffffffffffffffffff168373ffffffffffffffffffffffffffffffffffffffff167fddf252ad1be2c89b69c2b068fc378daa952ba7f163c4a11628f55a4df523b3ef83604051610d9b9190610f78565b60405180910390a3505050565b600081519050919050565b600082825260208201905092915050565b60005b83811015610de2578082015181840152602081019050610dc7565b60008484015250505050565b6000601f19601f8301169050919050565b6000610e0a82610da8565b610e148185610db3565b9350610e24818560208601610dc4565b610e2d81610dee565b840191505092915050565b60006020820190508181036000830152610e528184610dff565b905092915050565b600080fd5b600073ffffffffffffffffffffffffffffffffffffffff82169050919050565b6000610e8a82610e5f565b9050919050565b610e9a81610e7f565b8114610ea557600080fd5b50565b600081359050610eb781610e91565b92915050565b6000819050919050565b610ed081610ebd565b8114610edb57600080fd5b50565b600081359050610eed81610ec7565b92915050565b60008060408385031215610f0a57610f09610e5a565b5b6000610f1885828601610ea8565b9250506020610f2985828601610ede565b9150509250929050565b60008115159050919050565b610f4881610f33565b82525050565b6000602082019050610f636000830184610f3f565b92915050565b610f7281610ebd565b82525050565b6000602082019050610f8d6000830184610f69565b92915050565b600080600060608486031215610fac57610fab610e5a565b5b6000610fba86828701610ea8565b9350506020610fcb86828701610ea8565b9250506040610fdc86828701610ede565b9150509250925092565b600060ff82169050919050565b610ffc81610fe6565b82525050565b60006020820190506110176000830184610ff3565b92915050565b60006020828403121561103357611032610e5a565b5b600061104184828501610ea8565b91505092915050565b61105381610e7f565b82525050565b600060208201905061106e600083018461104a565b92915050565b6000806040838503121561108b5761108a610e5a565b5b600061109985828601610ea8565b92505060206110aa85828601610ea8565b9150509250929050565b7f4e487b7100000000000000000000000000000000000000000000000000000000600052602260045260246000fd5b600060028204905060018216806110fb57607f821691505b60208210810361110e5761110d6110b4565b5b50919050565b7f496e73756666696369656e74204554482073656e740000000000000000000000600082015250565b600061114a601583610db3565b915061115582611114565b602082019050919050565b600060208201905081810360008301526111798161113d565b9050919050565b7f4d617820737570706c7920726561636865640000000000000000000000000000600082015250565b60006111b6601283610db3565b91506111c182611180565b602082019050919050565b600060208201905081810360008301526111e5816111a9565b9050919050565b7f4e487b7100000000000000000000000000000000000000000000000000000000600052601160045260246000fd5b600061122682610ebd565b915061123183610ebd565b9250828201905080821115611249576112486111ec565b5b92915050565b600081905092915050565b50565b600061126a60008361124f565b91506112758261125a565b600082019050919050565b600061128b8261125d565b9150819050919050565b7f4661696c656420746f2073656e64204554480000000000000000000000000000600082015250565b60006112cb601283610db3565b91506112d682611295565b602082019050919050565b600060208201905081810360008301526112fa816112be565b9050919050565b6000606082019050611316600083018661104a565b6113236020830185610f69565b6113306040830184610f69565b94935050505056fea2646970667358221220744931620b1501af5d9d82e77df9705b2fdd7b9428ac6af0a871495016435c6664736f6c63430008140033",
  "linkReferences": {},
  "deployedLinkReferences": {}
}